:020000040800F2
:10000000880700202D020008B74C0008AF10000838
:10001000B54C000825070008AD6D00080000000081
:10002000000000000000000000000000FB5E00086F
:10003000750B0008000000005959000831620008E3
:10004000470200084702000847020008470200086C
:100050004702000847020008A10B000847020008F9
:10006000D90B0008110C0008490C000847020008D1
:10007000470200084702000847020008470200083C
:10008000470200084702000847020008470200082C
:10009000470200084702000847020008C50C000894
:1000A000470200084702000847020008470200080C
:1000B000470200086D630008A163000847020008BA
:1000C00047020008470200084702000847020008EC
:1000D00047020008B16B0008470200084702000809
:1000E00047020008470200084702000847020008CC
:1000F00047020008470200084702000847020008BC
:1001000047020008470200085D6400084702000833
:100110004702000847020008E5640008470200089B
:10012000470200084702000847020008470200088B
:1001300000F002F800F06BF80AA090E8000C82448E
:100140008344AAF10107DA4501D100F060F8AFF26B
:10015000090EBAE80F0013F0010F18BFFB1A43F0A5
:1001600001031847FCA300001CA400000A444FF040
:10017000000C10F8013B13F0070408BF10F8014B06
:100180001D1108BF10F8015B641E05D010F8016B4B
:10019000641E01F8016BF9D113F0080F1EBF10F8AF
:1001A000014BAD1C0C1B09D16D1E58BF01F801CBD2
:1001B000FAD505E014F8016B01F8016B6D1EF9D555
:1001C0009142D6D37047000000230024002500266A
:1001D000103A28BF78C1FBD8520728BF30C148BFAA
:1001E0000B607047642900F09D80752900F09A80AB
:1001F000782900F0D380632900F02782732900F06A
:100200002C82002070471FB51FBD10B510BD00F037
:1002100057FA1146FFF7F7FF06F0ACFE00F075FA4B
:1002200003B4FFF7F2FF03BC06F0D5FD0948804791
:1002300009480047FEE7FEE7FEE7FEE7FEE7FEE7C8
:10024000FEE7FEE7FEE7FEE704480549034A054BE3
:100250007047000035620008310100088803002063
:100260008807002088030020704700000FB404496D
:1002700010B503AA029800F0F5F910BC5DF814FB64
:100280005000002070B5044685690068C10601D59C
:10029000302600E02026C00707D070BDD4E9012138
:1002A00030469047206A401C20626D1EF6D570BD16
:1002B00070B5044685690078C00707D170BDD4E9E0
:1002C000012120209047206A401C20626D1EF6D537
:1002D00070BD70B50C460546012A05D02878800609
:1002E00000D5EA69002302E0012305E05B1C93428C
:1002F00002D2E05C0028F9D1A869E618C01AA8610A
:10030000286A184428622846FFF7BCFF04E0D5E9B4
:10031000012114F8010B9047B442F8D32846FFF7A7
:10032000C7FF70BD2DE9F04106460024106875290D
:10033000314616A510D0AFF30080002802DA404203
:1003400013A507E031688A0701D512A502E0490725
:1003500004D511A5012401E0AFF3008000210A2299
:1003600006F1240709E0B0FBF2FCB0FBF2F302FB5C
:100370001C00303078541846491C0028F3D123461D
:100380002A463046BDE8F04100F0FCB8000000000D
:100390002D0000002B0000002000000070B5044676
:1003A0000D4621461068AFF300802188090502D56B
:1003B0000F4A7A4402E00E4A7A440E32002104F1D8
:1003C000240305E000F00F060009965D5E54491C09
:1003D0000028F7D120780023000704D5702D02D023
:1003E00009B1022311322046BDE8704000F0CAB8BE
:1003F0002EA000002DE9F05F894604464FF0000A68
:10040000DFF874B1FB44C0F820A02046E1688847BB
:10041000002874D0252806D0D4E901219047206A0D
:10042000401C2062F1E700265F462046E1688847CD
:100430002028054607DB312D05D2781910F8200C4D
:1004400008B10643F1E7B00701D526F00406C4F869
:100450001CA00027C4F818A02A2D09D0284606F0B1
:10046000B3FC38B304EB8708303DC8F8185019E0E6
:1004700059F8041B204604EB87029161E168884724
:10048000012F054618D1E069002820DA26F0200661
:100490001DE0D8F8180000EB800005EB4000303874
:1004A000C8F818002046E1688847054606F08CFC2D
:1004B0000028EED1012F0AD02E2D08D12046E16868
:1004C00088477F1C0546022F46F02006C4DBA06942
:1004D000002803DA404246F00106A061F00701D08F
:1004E00026F010066C2D0BD0682D09D04C2D39D07C
:1004F0006A2D35D0742D35D07A2D33D016E038E002
:10050000E1682F4620468847B842054609D16C2F3E
:1005100026D04FF48060E1680643204688470546B0
:1005200004E06C2F1AD04FF4807006430DB3A5F190
:100530004100192802D8203546F400664A4629466B
:10054000204626604E46FFF74DFE80B101280BD0B5
:10055000F61D26F0070000F1080956E74020E4E701
:100560008020D8E70020D6E706F104094DE72846A9
:1005700052E7206ABDE8F09F04A000007047704772
:10058000704770472DE9F0470D469946924604465C
:1005900000F124080168880604D5E06921F0100103
:1005A000216000E00120A84201DD471B00E0002798
:1005B000A1697A1902EB0900081AA0612078C00627
:1005C00002D42046FFF75EFE002608E0D4E90121B0
:1005D0001AF806009047206A401C761C20624E459F
:1005E000F4DB2078C0060AD52046FFF74BFE06E074
:1005F000D4E9012130209047206A401C2062381E37
:10060000A7F10107F4DC07E0D4E9012118F805009F
:100610009047206A401C2062281EA5F10105F3DCEA
:100620002046FFF745FE2078000602D50220BDE8EF
:10063000F0870120FBE710B5436913B1AFF30080E9
:1006400001E0FFF746FE012010BD127800F1240101
:100650000A7000224A700122EDE711684FF0FF3264
:10066000E9E70000074B70B50D467B4400F011F838
:100670000446284600F020F810B14FF0FF3070BD5E
:10068000204670BDEF68000001694A1C02610878CD
:10069000704700B58FB0CDE90131002105910549C2
:1006A0007944CDE9031011466846FFF7A3FE0FB069
:1006B00000BD0000E5FFFFFF007B00F080007047F9
:1006C000754600F02BF8AE4605006946534620F00B
:1006D0000700854618B020B5FFF7B6FDBDE82040FD
:1006E0004FF000064FF000074FF000084FF0000BEE
:1006F00021F00701AC46ACE8C009ACE8C009ACE8A1
:10070000C009ACE8C0098D46704710B50446AFF388
:1007100000802046BDE81040FFF782BD00487047CA
:1007200024030020FEE742788B799A4224D9CB79C2
:100730009A4221D282780B799A421DD94B799A42FA
:100740001AD200780A88904202D94B88984211D375
:100750004988914207D288420CD3A2F57F420F3AD2
:10076000904207DC08E0F02906D9884202D8F03927
:10077000884201DA01207047002070472DE9FF41CF
:1007800003AAF5217D2005F054FA02A903A805F07B
:10079000E3F9534E9DF80810504F3078A1F11E0236
:1007A00007EB00101E31028041809DF80910A1F175
:1007B0001E0282711E31C1719DF80A10A1F11E0244
:1007C00002711E314171282141814FF4C872C281EA
:1007D000828101819DF80E309DF80D209DF80C104E
:1007E00040A0FFF743FD9DF809309DF80A209DF8D1
:1007F000081042A0FFF73AFD307807EB001042885E
:10080000018844A0FFF732FD80241825CDE900546B
:100810004FF416789DF80C2003234146642004F021
:10082000CBF9CDE900549DF80D20032341469420D7
:1008300004F0C2F9CDE900549DF80E20032341468F
:10084000C42004F0B9F9CDE9005440F276289DF8AF
:10085000082003234146642004F0AEF9CDE900549A
:100860009DF80A2003234146942004F0A5F9CDE920
:1008700000549DF8092003234146C42004F09CF94C
:10088000CDE9005430784FF4257807EB00100323AE
:1008900002884146642004F08FF9CDE90054307895
:1008A000032307EB001041464288942004F084F9AA
:1008B00010201DA1CDE900010346C82240F213110A
:1008C000AF2004F04FF93078401C10F0FF0030707A
:1008D00001D000203070BDE8FF810000BA01002087
:1008E000B80100204E455720523D256420473D2544
:1008F0006420423D25640D0A000000004E4557204B
:10090000483D256420533D2564204C3D25640D0A57
:1009100000000000485F4D494EA3BA25642C485F93
:100920004D414DA3BA25640073657420636F6D70EB
:100930006C657465212100000A480021F0220160E5
:1009400041608160C16001614161C0E906124FF4FC
:10095000C872C0E9082181624FF4AF6141638163CD
:1009600070470000E00100202DE9FF4F83B01E46D4
:1009700014468B460027039D15E06A4659462846D3
:1009800005F057F901A9684605F0E6F8214601A8E7
:10099000FFF7C9FE08B97F1CBFB22089B7EB500F23
:1009A00003D86D1EADB2782DE7D8AA4600274FF4C4
:1009B000AF78039D15E06A465946284605F039F997
:1009C00001A9684605F0C8F8214601A8FFF7ABFE6B
:1009D00008B97F1CBFB22089B7EB500F03D86D1C3C
:1009E000ADB24545E7D3A94600275D4615E06A4606
:1009F0002946039805F01DF901A9684605F0ACF8F1
:100A0000214601A8FFF78FFE08B97F1CBFB22089DD
:100A1000B7EB500F03D86D1EADB2F02DE7D8A84646
:100A20005D46002740F2262B15E06A4629460398CA
:100A300005F0FFF801A9684605F08EF8214601A8E7
:100A4000FFF771FE08B97F1CBFB22089B7EB500FCA
:100A500003D86D1CADB25D45E7D30AEB0900400831
:100A6000308008EB050040087080A9EB0A0080B2D6
:100A7000A5EB0801B08089B2F180228990420CD99F
:100A8000A289904209D26089814206D9E0898142D7
:100A900003D2012007B0BDE8F08F0020FAE7000084
:100AA0000A2839D890B31D4924220B280A7033D262
:100AB000DFE800F032060A0E12161A1E22272D0059
:100AC0000520487106207047092048720A207047A7
:100AD0000D2048730E207047112048741220704773
:100AE0001520487516207047192048761A2070473F
:100AF0001D2048771E207047212081F821002220E8
:100B00007047252081F825002620704704E0292021
:100B100081F829002A20F8E70020F6E732020020B9
:100B200003B50A2912D8002910D00B290ED2DFE80C
:100B300001F00D06080E10121416181A1C000122DE
:100B400000E005220A49684600F00EFA0CBD0922B1
:100B5000F8E70D22F6E71122F4E71522F2E7192251
:100B6000F0E71D22EEE72122ECE72522EAE700006C
:100B700032020020704770B50446401D82B2601FEB
:100B80000D4680B20B4600F02BFC681D6D1F2246FF
:100B9000A9B2BDE8704083B2104600F021BC00004D
:100BA00010B50A2006F0A6F90121094800F074FAF0
:100BB000012806D10749D1F8A00138B10020C1F8B9
:100BC000A001BDE81040012000F0A0B80120F6E728
:100BD000000801400080214210B50A2006F08AF981
:100BE0000421094800F058FA30B90849D1F89401B5
:100BF00038B10020C1F89401BDE81040042000F095
:100C000085B80120F6E7000000180140008021426D
:100C100010B50A2006F06EF90821094800F03CFAE8
:100C200030B90849D1F8940138B10020C1F89401D5
:100C3000BDE81040082000F069B80120F6E7000088
:100C4000001801400000234210B50A2006F052F9B6
:100C50001021094800F020FA30B90849D1F8940170
:100C600038B10020C1F89401BDE81040102000F018
:100C70004DB80120F6E70000001801400080214235
:100C80003EB50821002000F079F94FF4807000246F
:100C900000908DF8044008208DF8050001258DF89E
:100CA0000650684600F048F817208DF808008DF8C7
:100CB00009408DF80A408DF80B5002A803F0FCFFA4
:100CC0003EBD000010B54FF48074204600F024F8BB
:100CD000012806D10A4B0B4A0021187830B1C2F81E
:100CE0008C112046BDE8104000F010B80648C0F84E
:100CF00098110121C0F89811C2F88C111970F0E711
:100D00002200002000802142008022420149086028
:100D10007047000014040140064A01460020126892
:100D2000044B0A4014331B680B4202D0002A00D047
:100D3000012070470004014030B51A4A83790168E8
:100D400053B313688B431360111D0B680468A343EE
:100D50000B60017911440B68046823430B60114B4D
:100D6000083319680468A14319601C1D21680568CF
:100D7000A94321604179102905D011440A6800680F
:100D800002430A6030BD1968026811431960216886
:100D900000680143216030BD0079104402688A4335
:100DA000026030BD000401408000A0F1C040002975
:100DB000016802D041F0010101E0024A11400160E6
:100DC00070470000FEFF0F0010B5D0E9011211437B
:100DD000D0E903231A431143426911438269114345
:100DE000C2691143026A1143426A1143826A114384
:100DF000C26A1143026B114302689200A2F1C04221
:100E000011608168082907D101688900A1F1C041FA
:100E10000A6842F040020A60416BD1E9002342EACD
:100E200003128B688C891B0243EA04431A430B8A22
:100E300042EA03520B7D896942EA03620A43016870
:100E40008900A1F1C0414A60C16AB1F5804F08D064
:100E500000686FF070418000A0F1C040C0F804113C
:100E600010BD816BD1E9002342EA03128B680C8A22
:100E70001B0243EA04531A430B7D896942EA036269
:100E800000680A438000A0F1C040C0F8042110BDF2
:100E90002DE9FC5F0024DFF8A8B02A4EDFF8A8A0F7
:100EA000274606EBC4050BEB0410294605F022FE8D
:100EB000E0B36988E888AA88A1EB5001084483B2AE
:100EC00036F8340089B2A0EB5200024492B280B2EC
:100ED00000F0E0FA698836F83400FFF74CFE6A88C3
:100EE00036F8341019A0FFF7C1F94FF01808CDE912
:100EF00000874FF4167936F8342003234946002042
:100F000003F05AFECDE900876A880323494628206A
:100F100003F052FE134A36F8340050626988916239
:100F200005F05AFF0121CAF8941102E0FFE7CAF860
:100F30009471641C14F0FF04B3D0BDE8FC9F000062
:100F4000BA010020D6010020008021424361707464
:100F50007572655F48534C3D2025642C25640D0A4D
:100F600000000000E001002003788B541144437816
:100F70004B7082788A70C078C870704710B58A0745
:100F800021F003040649120F21440F238C6893407B
:100F90009C438C608B68904003438B6010BD0000C5
:100FA00000000140F0B5CC78002204F00F03E40605
:100FB00001D58C7823430C784FF00F0C14F0FF0F01
:100FC0004FF0010E1BD005680E880EFA02F4264081
:100FD000A64210D196000CFA06F725EA070703FA95
:100FE00006F5CE783D43282E02D0482E02D002E0EE
:100FF000446100E00461521C082AE5D305600A88B8
:10100000FF2A1CD94468002202F108060EFA06F5F0
:101010000E882E40AE420ED196000CFA06F7BC4365
:1010200003FA06F7CE783C43282E00D14561CE78EE
:10103000482E00D10561521C082AE5D34460F0BD5A
:10104000F0B5144C002801DAE36900E06368450D4F
:101050002E0185B2C0F30157B540C0F30342032F00
:1010600005D0C6020AD503269640B34307E023F015
:101070007062636823F07063636002E0AB4343F027
:10108000706201B12A43002801DAE261F0BD6260BA
:10109000F0BD0000000001400246002092680A42B4
:1010A00000D0012070474161704701617047FEE741
:1010B00008B50121442004F0F9FC1C20ADF8000023
:1010C00048208DF8030069460648FFF76BFF0120B2
:1010D000ADF8000028208DF8030069460248FFF7AC
:1010E00061FF08BD00180140000801402DE9F041F2
:1010F0002E4C2F4F2F4D012608B1267001E020788D
:10110000A0B110212846FFF7C7FFB0B1082128463B
:10111000FFF7C2FF88B104212846FFF7BDFF60B189
:1011200001213846FFF7B8FF012806D010212846D4
:10113000FFF7B2FF012824D035E00A2005F0DAFEDF
:101140000020207010212846FFF7A6FF80B108215B
:101150002846FFF7A1FF70B104212846FFF79CFF46
:1011600058B101213846FFF797FF012807D01AE050
:101170000120BDE8F0810220FBE70320F9E704200D
:10118000F7E708212846FFF787FF01280BD1042144
:101190002846FFF781FF012805D101213846FFF7D6
:1011A0007BFF00B926700020E3E700001800002054
:1011B000000801400018014070B50120FFF796FFBC
:1011C000042813D0164C174D174E032812D00228AE
:1011D0001BD0012809D1A06807F018FA2A46334627
:1011E00006F044FF06F010FFA06070BDBDE870403F
:1011F000FFF7C4BA206807F009FA2A46334606F01A
:1012000035FF06F001FF206070BD606807F0FEF951
:101210002A46334606F02AFF06F0F6FE606070BDEF
:10122000E00100209A9999999999B93FC0F3451125
:10123000C20AC00200EB4110104480B270470000A7
:101240002DE9F043174F0646002438887D88454332
:10125000B888A0F5D041043902D1B879012807D067
:101260000021084603F0B6FA03F0EAFC0E4815E048
:101270000020B8714FF02A09A7F80A904FF02B0808
:10128000A7F80C80014603F0A5FA0120B871A7F871
:101290000A80A7F80C90E7E70680641CAC42FBD3F9
:1012A000BDE8F083240200200008006C2DE9F04F17
:1012B0004A492A232B24898845F2105A4FF4305B7F
:1012C0004FF4285E4FF448754FF0F00C49F2413965
:1012D0004FF4A07745F210364FF4F07280B13F48DA
:1012E0004FF00108494580F806800780A0F802C049
:1012F00001D0B1423ED12C2505814381848157E044
:1013000036484FF00008494580F80680A0F800C034
:10131000478006D0A1F5D04CBCF1040C01D0B142FD
:101320000CD12C2505814381A1F5D0438481043B58
:1013300001D0B14244D10780428041E0514507D1FC
:10134000A0F808B0A0F80AE04FF42C5181810EE01B
:10135000A1F5C856633E06D022210181202141819A
:10136000212181812CE02C21018144818381028013
:10137000458025E0A1F5D04CBCF1040C09D05145C5
:101380000BD1A0F808B0A0F80AE04FF42C538381E9
:1013900021E02C250581448109E0A1F5C85CBCF160
:1013A000630C12D0222303812123438120238381D4
:1013B000A1F5D043043B01D0B14201D10280478066
:1013C000BDE8F04F002003F031B94FF02C0CA0F82D
:1013D00008C04381848105804280E9E7240200201F
:1013E0002DE9FE4F0026A2EB000882465F1A701E10
:1013F00035468946B8F1000F02DD4FF0010102E0E9
:1014000003D14FF00001019102E0C8F10008019002
:10141000002F02DD4FF0010002E003D14FF0000089
:10142000009002E0C7F1000700904046B84501DD9A
:10143000044600E03C46601C4FF0000B029015E0B3
:101440001FFA89F11FFA8AF000F016F846443D446D
:10145000A64202DD0199361B8A44A54202DD0099AD
:101460002D1B89440BF101001FFA80FB02998B456B
:10147000E6DDBDE8FE8F000000B503F0ABF903F038
:10148000DFFB024802490088088000BD1A000020E6
:101490000008006CF0B51C4615460E4607460B4684
:1014A000FFF79EFF3A46234631461046FFF798FF66
:1014B00023462A4619463846FFF792FF2A46234616
:1014C0003146BDE8F0401046FFF78ABF2DE9F04FE6
:1014D000DFF81081934642460B46B8F804500C0AD8
:1014E000DFF804A19189060A5289A5F513470AF18C
:1014F0000209413F19D0A5F5A647103F15D0A5F523
:10150000AA47103F1CD04746A5F5C85CBE793F8866
:101510003F1A7F1EBCF1630C27D0A5F5D04CBCF15F
:10152000040C3AD0012E4AD04AE0AAF800204A46DC
:10153000A9F80060C0B2A9F80000AAF800103AE0CB
:10154000AAF80020A9F80060521CAAF80020C0B236
:10155000A9F80000AAF80010A9F80040491CAAF850
:101560000010D8B2A9F8000033E006B9B8B2AAF862
:101570000020050A4A46A9F80050C7B2A9F8007031
:10158000A9F80050C0B2A9F80000AAF80010A9F804
:101590000040D8B2A9F800000DE0012E00D1B8B289
:1015A000AAF80020050A4A46A9F80050C0B2A9F8D6
:1015B0000000AAF800101480D8B2108009E0B8B278
:1015C0000146104603F046FBB8F80C00194603F03C
:1015D00041FBB8F80810AAF80010A9F800B0BDE85F
:1015E000F08F000024020020FE07006C2DE9F84374
:1015F0001F4D1F468046AB88089EA3F5D040043897
:1016000002D1A879012807D0A2EB0800401C85B2BE
:101610000C46DFF8609028E02B880846991A0024D1
:10162000AC713A462A24A3EB08036C812B27491E90
:101630005B1EAF8189B29BB20096FFF7D7FF0120F6
:10164000A8716F81AC81BDE8F8832146404603F064
:10165000C1F803F0F5FA0020494602E00E80401C74
:1016600080B2A842FAD3641CA4B2BC42EDD9EAE726
:10167000240200200008006C2DE9F04F01210E0229
:101680009FB0304604F0FAF901214FF4B47004F031
:101690000DFA0127ADF83C704FF010088DF83F802F
:1016A00003248DF83E400FA9FE48FFF77BFC4CF267
:1016B0003370ADF83C0018258DF83F508DF83E4052
:1016C0000FA9F948FFF76EFC4FF68070ADF83C00AB
:1016D0008DF83F508DF83E400FA9F448FFF762FCAB
:1016E00041F20100ADF83C008DF83F508DF83E40CE
:1016F0000FA9EF48FFF756FC00200F21CDE9180194
:101700001A901B901C901D901090CDE91104CDE90A
:101710001607149006211590CDE90010CDE90208B6
:10172000139004903101CDE90801069005900790CF
:101730008900CDE90A010C9017A80D9010A80E9011
:101740006846FFF741FB01210620FFF72DFB322001
:1017500005F0D0FB002002F03FFFD64DD64C49F2F9
:101760004139A88046F6040A45F2103B45F210576D
:101770004FF6FF78FF2804D3404502D0B0F5134F51
:1017800070D1D320208002F097FEA88002F094FE52
:10179000A88002F091FE08EA00204146A88002F0ED
:1017A0008BFEAA881043A88048455BD0BF202080CC
:1017B00002F082FEA88002F07FFEA88002F07CFE8C
:1017C000A88002F079FE01EA0020A88002F074FEF1
:1017D000AA881043A880504544D0D420208002F02D
:1017E0006BFEA88002F068FEA88002F065FE01EAA8
:1017F0000020A88002F060FEAA881043A880584507
:1018000030D04FF45A40208002F056FEA8804FF4AA
:101810005B40208002F050FE01EA0020A8804FF4D7
:101820005C40208002F048FEAA881043A880B0F5F2
:10183000004F7DD0B84215D0A120208002F03CFEA0
:10184000A88002F039FE01EA0020A88002F034FEF0
:10185000A9880843A0F5AE41A880613902D141F6BC
:101860006310A880A98895A0FEF700FDA888924D76
:10187000AD1C48457ED1CF20208000202880C1208B
:10188000288030202880ED202080642028800320BC
:1018900028801220288081202880E8202080852030
:1018A0002880102028807A202880CB202080392092
:1018B00028802C20288000202880342028800220A6
:1018C0002880F720208020202880EA202080002007
:1018D00028802880C02020801B202880C1202080D4
:1018E00001202880C5202080302028802880C72023
:1018F0002080B720288036202080482028803A2069
:10190000208055202880B1202080002028801A20A7
:101910002880B62020800A202880A2202880F2205B
:10192000208000202880262020800120288000E0C0
:1019300051E0E02020800F2028802A2028802820C5
:101940002880082028800E20288008202880542005
:101950002880A9202880432028800A2028800F2062
:10196000288000202880288028802880E12020806E
:10197000002000E031E028801520288017202880F2
:101980000720288011202880062028802B202880EE
:10199000562028803C202880052028801020288080
:1019A0000F2028803F20288028800F2028802B208F
:1019B0002080002028802880012028803F20288047
:1019C0002A2020800020288028802880EF2028805E
:1019D0001120208084E0AF8044E7504576D111206B
:1019E0002080142005F086FAD0202080072028804F
:1019F000422028801D202880D1202080002028809F
:101A00001A20288009202880D220208001202880C8
:101A100022202880C0202080102028803B20288081
:101A2000002028800220288011202880C5202080C6
:101A300003202880C820208000202880252028809E
:101A40002120288005202880002028800A20288046
:101A50006520288025202880772028805020288015
:101A60000F20288000202880F82020800120288056
:101A7000FE20208000202880022028802020208036
:101A800036202080082028803A2020805520288079
:101A90002B202080002028802880012028803F20C3
:101AA000288014E0000C014000140140001801409F
:101AB0000020014024020020FE07006C204C43441B
:101AC0002049443A25780D0A000000000EE02A2043
:101AD000208000202880288001202880DF20288086
:101AE000782005F007FA292001F02DBC58457DD15A
:101AF000ED20208001202880FE202880EE202080FC
:101B0000DE20288021202880F120208001202880CC
:101B1000DF20208010202880C42020808F20288073
:101B2000C620208000202880E2202880288028806D
:101B3000BF202080AA202880B02020800D2028806F
:101B4000002028800D202880002028801120288057
:101B5000002028801920288000202880212028802B
:101B6000002028802D202880002028803D202880EB
:101B7000002028805D202880002028805D2028808B
:101B800000202880B120208080202880002028800C
:101B90008B20288000202880962028800020288004
:101BA000B220208000202880288002202880002069
:101BB00028800320288000202880B3202080002057
:101BC00028802880288028802880288028802880D5
:101BD00028802880288028802880288028802880C5
:101BE0002880288028802880288000E0FEE3288044
:101BF00028802880B42020808B2028800020288006
:101C00009620288000202880A1202880002028807D
:101C1000B5202080022028800020288003202880F2
:101C2000002028800420288000202880B6202080E2
:101C3000002028802880B72020800020288028804D
:101C40003F202880002028805E20288000202880D7
:101C500064202880002028808C2028800020288074
:101C6000AC20288000202880DC20288000202880CC
:101C70007020288000202880902028800020288044
:101C8000EB20288000202880DC202880002028806D
:101C9000B820208000202880288028802880288064
:101CA000288028802880BA202080242028800020B6
:101CB000288028802880C1202080202028800020A3
:101CC00028805420288000202880FF2028800020A1
:101CD0002880C22020800A2028800020288004201C
:101CE000288000202880C32020803C2028800020DD
:101CF00028803A2028800020288039202880002051
:101D0000288037202880002028803C202880002040
:101D1000288036202880002028803220288000203B
:101D200028802F202880002028802C202880002038
:101D30002880292028800020288026202880002034
:101D4000288024202880002028802420288000202B
:101D5000288023202880002028803C202880002004
:101D600028803620288000202880322028800020EB
:101D700028802F202880002028802C2028800020E8
:101D800028802920288000202880262028800020E4
:101D900028802420288000202880242028800020DB
:101DA00028802320288000202880C42020806220D2
:101DB000288000202880052028800020288084207A
:101DC000288000202880F0202880002028801820EB
:101DD000288000202880A420288000202880182027
:101DE00028800020288050202880002028800C2077
:101DF0002880002028801720288000202880952017
:101E0000288000202880F320288000202880E620D9
:101E1000288000202880C5202080322028800020B3
:101E200028804420288000202880652028800020E9
:101E30002880762028800020288088202880002084
:101E40002880C6202080202028800020288017207D
:101E50002880002028800120288000202880C7209A
:101E6000208000202880288028802880C82020808A
:101E700000202880288028802880C92020800020F9
:101E80002880288028802880288028802880288012
:101E90002880288028802880288028802880288002
:101EA000E020208016202880002028801C20288008
:101EB00000202880212028800020288036202880AB
:101EC000002028804620288000202880522028805A
:101ED0000020288064202880002028807A20288004
:101EE000002028808B2028800020288099202880AE
:101EF00000202880A820288000202880B920288061
:101F000000202880C420288000202880CA20288023
:101F100000202880D220288000202880D9202880F6
:101F200000202880E020288000202880F3202880BE
:101F300000202880E1202080162028800020288092
:101F40001C20288000202880222028800020288033
:101F500036202880002028804520288000202880E6
:101F6000522028800020288064202880002028809B
:101F70007A202880002028808B202880002028803C
:101F80009920288000202880A820288000202880F0
:101F9000B920288000202880C420288000202880A4
:101FA000CA20288000202880D22028800020288075
:101FB000D820288000202880E02028800020288049
:101FC000F320288000202880E2202080052028801F
:101FD000002028800B202880002028801B202880BB
:101FE0000020288034202880002028804420288059
:101FF000002028804F202880002028806120288011
:1020000000202880792028800020288088202880AF
:10201000002028809720288000202880A620288063
:1020200000202880B720288000202880C220288017
:1020300000202880C720288000202880D1202880E8
:1020400000202880D620288000202880DD202880BD
:1020500000202880F320288000202880E320208092
:1020600005202880002028800A2028800020288041
:102070001C202880002028803320288000202880F1
:10208000442028800020288050202880002028809C
:102090006220288000202880782028800020288046
:1020A00088202880002028809720288000202880F1
:1020B000A620288000202880B720288000202880A3
:1020C000C220288000202880C72028800020288067
:1020D000D120288000202880D5202880002028803A
:1020E000DD20288000202880F32028800020288000
:1020F000E4202080012028800020288001202880E2
:102100000020288002202880002028802A20288083
:10211000002028803C202880002028804B20288018
:10212000002028805D2028800020288074202880BE
:102130000020288084202880002028809320288068
:1021400000202880A220288000202880B32028801A
:1021500000202880BE20288000202880C4202880DD
:1021600000202880CD20288000202880D3202880AF
:1021700000202880DD20288000202880F32028806F
:1021800000202880E52020800020288028802880CA
:1021900028800220288000202880292028800020F4
:1021A00028803C202880002028804B202880002088
:1021B00028805D202880002028807420288000202E
:1021C00028808420288000202880932028800020D8
:1021D0002880A220288000202880B320288000208A
:1021E0002880BE20288000202880C420288000204D
:1021F0002880CD20288000202880D320288000201F
:102200002880DC20288000202880F32028800020DF
:102210002880E6202080112028800020288034207B
:1022200028800020288056202880002028807620C2
:1022300028800020288077202880002028806620A1
:10224000288000202880882028800020288099204D
:10225000288000202880BB2028800020288099200A
:102260002880002028806620288000202880552093
:1022700028800020288055202880002028804520A4
:1022800028800020288043202880002028804420A7
:10229000288000202880E72020803220288000200D
:1022A0002880552028800020288076202880002043
:1022B0002880662028800020288067202880002031
:1022C0002880672028800020288087202880002000
:1022D00028809920288000202880BB20288000208A
:1022E00028809920288000202880772028800020BE
:1022F0002880442028800020288056202880002024
:102300002880232028800020288033202880002057
:1023100028804520288000202880E8202080002078
:1023200028802880992028800020288087202880E5
:10233000002028808820288000202880772028807E
:10234000002028806620288000202880882028807F
:1023500000202880AA20288000202880BB202880F8
:10236000002028809920288000202880662028804E
:102370000020288055202880002028805520288093
:1023800000202880442028800020288044202880A5
:10239000002028805520288000202880E9202080E7
:1023A000AA20288000202880288028802080AA2039
:1023B0002880CF2020800020288028802880288026
:1023C00028802880288028802880288028802880CD
:1023D00028802880288028802880F02020800020E5
:1023E0002880502028800020288000E02CE02880D1
:1023F0002880F320208000202880F92020800620DB
:1024000028801020288029202880002028803A2039
:1024100020805520288011202080642004F06AFD4F
:1024200029202080352020800020288051202080F5
:10243000FF202880532020802C20288055202080B9
:10244000822028802C20FCE3B8427DD14FF47043D9
:102450005521184602F0FEFB4FF20105AA2128463D
:1024600002F0F8FB6E1C5221304602F0F3FBAF1C69
:102470000821384602F0EEFB4FF2040901214846DC
:1024800002F0E8FB0D214FF4304002F0E3FB0D2198
:102490004BF2010002F0DEFB0D214BF2020002F0D4
:1024A000D9FB4FF4364A3421504602F0D3FB342195
:1024B0004BF2016002F0CEFB34214BF2026002F0DD
:1024C000C9FB4FF4314B0D21584602F0C3FB0D21DF
:1024D0004BF2011002F0BEFB0D214BF2021002F094
:1024E000B9FB34214FF4374002F0B4FB34214BF2F6
:1024F000017002F0AFFB34214BF2027002F0AAFB34
:1025000000214FF4324002F0A5FB00214BF20120E4
:1025100002F0A0FB00214BF2022002F09BFB2421E1
:102520004FF4384002F096FB24214BF6010002F0F4
:1025300091FB24214BF6020002F08CFB01214FF4A9
:102540003F4002F087FB00E0FEE30F214FF43340F1
:1025500002F080FB0F214BF2013002F07BFB0F21D8
:102560004BF2023002F076FB34214FF4394002F096
:1025700071FB34214BF6011002F06CFB34214BF659
:10258000021002F067FB08214FF4354002F062FBB5
:1025900008214BF2015002F05DFB08214BF2025082
:1025A00002F058FB03214FF4424002F053FB242178
:1025B0004FF43A4002F04EFB24214BF6012002F08A
:1025C00049FB24214BF6022002F044FB00214FF48A
:1025D0003C4002F03FFB78214BF6014002F03AFB11
:1025E00000214BF6024002F035FB00214FF43D4044
:1025F00002F030FB78214BF6015002F02BFB00215A
:102600004BF6025002F026FB00214FF43E4002F050
:1026100021FB64214BF6016002F01CFB00214FF40A
:10262000514002F017FB33214DF2011002F012FB72
:1026300000214DF2021002F00DFB34214DF2031087
:1026400002F008FB00214DF2041002F003FB3A21D6
:102650004DF2051002F0FEFA00214DF2061002F0D4
:10266000F9FA4A214DF2071002F0F4FA00214DF276
:10267000081002F0EFFA5C214DF2091002F0EAFABC
:1026800000214DF20A1002F0E5FA81214DF20B1003
:1026900002F0E0FA00214DF20C1002F0DBFAA62164
:1026A0004DF20D1002F0D6FA00214DF20E1002F09C
:1026B000D1FAE5214DF20F1002F0CCFA01214DF2D2
:1026C000101002F0C7FA13214DF2111002F0C2FAF5
:1026D00001214DF2121002F0BDFA54214DF21310F7
:1026E00002F0B8FA01214DF2141002F0B3FA82217F
:1026F0004DF2151002F0AEFA01214DF2161002F063
:10270000A9FACA214DF2171002F0A4FA02214DF2E3
:10271000181002F09FFA00214DF2191002F09AFAF7
:1027200002214DF21A1002F095FA01214DF21B1010
:1027300002F090FA02214DF21C1002F08BFA3421C3
:102740004DF21D1002F086FA02214DF21E1002F029
:1027500081FA67214DF21F1002F07CFA02214DF23E
:10276000201002F077FA84214DF2211002F072FA63
:1027700002214DF2221002F06DFAA4214DF2231035
:1027800002F068FA02214DF2241002F063FAB72138
:102790004DF2251002F05EFA02214DF2261002F0F1
:1027A00059FACF214DF2271002F054FA02214DF2CE
:1027B000281002F04FFADE214DF2291002F04AFAF9
:1027C00002214DF22A1002F045FAF2214DF22B10AF
:1027D00002F040FA02214DF22C1002F03BFAFE21E9
:1027E0004DF22D1002F036FA03214DF22E1002F0B8
:1027F00031FA10214DF22F1002F02CFA03214DF284
:10280000301002F027FA33214DF2311002F022FA93
:1028100003214DF2321002F01DFA6D214DF23310FA
:1028200002F018FA00214FF4524002F013FA33215B
:102830004DF2012002F00EFA00214DF2022002F0CA
:1028400009FA34214DF2032002F004FA00214DF27E
:10285000042002F0FFF93A214DF2052002F0FAF9C6
:1028600000214DF2062002F0F5F94A214DF2072031
:1028700002F0F0F900214DF2082002F0EBF95C21A2
:102880004DF2092002F0E6F900214DF20A2002F093
:10289000E1F981214DF20B2002F0DCF900214DF22B
:1028A0000C2002F0D7F9A6214DF20D2002F0D2F94A
:1028B00000214DF20E2002F0CDF9E5214DF20F205E
:1028C00002F0C8F901214DF2102002F0C3F91321E2
:1028D0004DF2112002F0BEF901214DF2122002F05A
:1028E000B9F954214DF2132002F0B4F901214DF24F
:1028F000142002F0AFF982214DF2152002F0AAF95E
:1029000001214DF2162002F0A5F9CA214DF217203F
:1029100002F0A0F902214DF2182002F09BF90021EB
:102920004DF2192002F096F902214DF21A2002F020
:1029300091F901214DF21B2002F08CF902214DF298
:102940001C2002F087F934214DF21D2002F082F99B
:1029500002214DF21E2002F07DF967214DF21F2069
:1029600002F078F902214DF2202002F073F984215F
:102970004DF2212002F06EF902214DF2222002F0E8
:1029800069F9A4214DF2232002F064F902214DF2ED
:10299000242002F05FF9B7214DF2252002F05AF908
:1029A00002214DF2262002F055F9CF214DF22720C9
:1029B00002F050F902214DF2282002F04BF9DE21FD
:1029C0004DF2292002F046F902214DF22A2002F0B0
:1029D00041F9F2214DF22B2002F03CF902214DF297
:1029E0002C2002F037F9FE214DF22D2002F032F9B1
:1029F00003214DF22E2002F02DF910214DF22F204F
:102A000002F028F903214DF2302002F023F933219E
:102A10004DF2312002F01EF903214DF2322002F076
:102A200019F96D214DF2332002F014F900214FF411
:102A3000534002F00FF933214DF2013002F00AF950
:102A400000214DF2023002F005F934214DF203303D
:102A500002F000F900214DF2043002F0FBF83A21B7
:102A60004DF2053002F0F6F800214DF2063002F08A
:102A7000F1F84A214DF2073002F0ECF800214DF256
:102A8000083002F0E7F85C214DF2093002F0E2F87C
:102A900000214DF20A3002F0DDF881214DF20B30B9
:102AA00002F0D8F800214DF20C3002F0D3F8A62144
:102AB0004DF20D3002F0CEF800214DF20E3002F052
:102AC000C9F8E5214DF20F3002F0C4F801214DF2B2
:102AD000103002F0BFF813214DF2113002F0BAF8B5
:102AE00001214DF2123002F0B5F854214DF21330AD
:102AF00002F0B0F801214DF2143002F0ABF882215F
:102B00004DF2153002F0A6F801214DF2163002F018
:102B1000A1F8CA214DF2173002F09CF802214DF2C3
:102B2000183002F097F800214DF2193002F092F8B7
:102B300002214DF21A3002F08DF801214DF21B30C6
:102B400002F088F802214DF21C3002F083F83421A3
:102B50004DF21D3002F07EF802214DF21E3002F0DF
:102B600079F867214DF21F3002F074F802214DF21E
:102B7000203002F06FF884214DF2213002F06AF823
:102B800002214DF2223002F065F8A4214DF22330EB
:102B900002F060F802214DF2243002F05BF8B72118
:102BA0004DF2253002F056F802214DF2263002F0A7
:102BB00051F8CF214DF2273002F04CF802214DF2AE
:102BC000283002F047F8DE214DF2293002F042F8B9
:102BD00002214DF22A3002F03DF8F2214DF22B3065
:102BE00002F038F802214DF22C3002F033F8FE21C9
:102BF0004DF22D3002F02EF803214DF22E3002F06E
:102C000029F810214DF22F3002F024F803214DF263
:102C1000303002F01FF833214DF2313002F01AF853
:102C200003214DF2323002F015F86D214DF23330B0
:102C300002F010F800214FF4544002F00BF8332159
:102C400000E080E34DF2014002F004F800214DF273
:102C5000024001F0FFFF34214DF2034001F0FAFF82
:102C600000214DF2044001F0F5FF3A214DF20540FC
:102C700001F0F0FF00214DF2064001F0EBFF4A2188
:102C80004DF2074001F0E6FF00214DF2084001F04F
:102C9000E1FF5C214DF2094001F0DCFF00214DF223
:102CA0000A4001F0D7FF81214DF20B4001F0D2FF25
:102CB00000214DF20C4001F0CDFFA6214DF20D4058
:102CC00001F0C8FF00214DF20E4001F0C3FFE521E5
:102CD0004DF20F4001F0BEFF01214DF2104001F016
:102CE000B9FF13214DF2114001F0B4FF01214DF263
:102CF000124001F0AFFF54214DF2134001F0AAFF42
:102D000001214DF2144001F0A5FF82214DF2154042
:102D100001F0A0FF01214DF2164001F09BFFCA21F6
:102D20004DF2174001F096FF02214DF2184001F0DC
:102D300091FF00214DF2194001F08CFF02214DF26C
:102D40001A4001F087FF00E0FFE201214DF21B4035
:102D500001F080FF02214DF21C4001F07BFF342185
:102D60004DF21D4001F076FF02214DF21E4001F0B0
:102D700071FF67214DF21F4001F06CFF02214DF2FF
:102D8000204001F067FF84214DF2214001F062FFF5
:102D900002214DF2224001F05DFFA4214DF22340BB
:102DA00001F058FF02214DF2244001F053FFB721FA
:102DB0004DF2254001F04EFF02214DF2264001F078
:102DC00049FFCF214DF2274001F044FF02214DF28F
:102DD000284001F03FFFDE214DF2294001F03AFF8B
:102DE00002214DF22A4001F035FFF2214DF22B4035
:102DF00001F030FF02214DF22C4001F02BFFFE21AB
:102E00004DF22D4001F026FF03214DF22E4001F03E
:102E100021FF10214DF22F4001F01CFF03214DF244
:102E2000304001F017FF33214DF2314001F012FF25
:102E300003214DF2324001F00DFF6D214DF2334080
:102E400001F008FF00214FF4554001F003FF33214A
:102E50004DF2015001F0FEFE00214DF2025001F052
:102E6000F9FE34214DF2035001F0F4FE00214DF241
:102E7000045001F0EFFE3A214DF2055001F0EAFE58
:102E800000214DF2065001F0E5FE4A214DF20750B7
:102E900001F0E0FE00214DF2085001F0DBFE5C2164
:102EA0004DF2095001F0D6FE00214DF20A5001F01A
:102EB000D1FE81214DF20B5001F0CCFE00214DF2EC
:102EC0000C5001F0C7FEA6214DF20D5001F0C2FEDC
:102ED00000214DF20E5001F0BDFEE5214DF20F50E4
:102EE00001F0B8FE01214DF2105001F0B3FE1321A4
:102EF0004DF2115001F0AEFE01214DF2125001F0E1
:102F0000A9FE54214DF2135001F0A4FE01214DF20F
:102F1000145001F09FFE82214DF2155001F09AFEEF
:102F200001214DF2165001F095FECA214DF21750C5
:102F300001F090FE02214DF2185001F08BFE0021AD
:102F40004DF2195001F086FE02214DF21A5001F0A7
:102F500081FE01214DF21B5001F07CFE02214DF259
:102F60001C5001F077FE34214DF21D5001F072FE2D
:102F700002214DF21E5001F06DFE67214DF21F50EF
:102F800001F068FE02214DF2205001F063FE842121
:102F90004DF2215001F05EFE02214DF2225001F06F
:102FA00059FEA4214DF2235001F054FE02214DF2AE
:102FB000245001F04FFEB7214DF2255001F04AFE9A
:102FC00002214DF2265001F045FECF214DF227504F
:102FD00001F040FE02214DF2285001F03BFEDE21BF
:102FE0004DF2295001F036FE02214DF22A5001F037
:102FF00031FEF2214DF22B5001F02CFE02214DF258
:103000002C5001F027FEFE214DF22D5001F022FE42
:1030100003214DF22E5001F01DFE10214DF22F50D4
:1030200001F018FE03214DF2305001F013FE332160
:103030004DF2315001F00EFE03214DF2325001F0FD
:1030400009FE6D214DF2335001F004FE00214FF4D2
:10305000564001F0FFFD33214DF2016001F0FAFD11
:1030600000214DF2026001F0F5FD34214DF20360C4
:1030700001F0F0FD00214DF2046001F0EBFD3A217A
:103080004DF2056001F0E6FD00214DF2066001F011
:10309000E1FD4A214DF2076001F0DCFD00214DF217
:1030A000086001F0D7FD5C214DF2096001F0D2FD0E
:1030B00000214DF20A6001F0CDFD81214DF20B603F
:1030C00001F0C8FD00214DF20C6001F0C3FDA62106
:1030D0004DF20D6001F0BEFD00214DF20E6001F0D9
:1030E000B9FDE5214DF20F6001F0B4FD01214DF273
:1030F000106001F0AFFD13214DF2116001F0AAFD47
:1031000001214DF2126001F0A5FD54214DF2136032
:1031100001F0A0FD01214DF2146001F09BFD822120
:103120004DF2156001F096FD01214DF2166001F09F
:1031300091FDCA214DF2176001F08CFD02214DF284
:10314000186001F087FD00214DF2196001F082FD49
:1031500002214DF21A6001F07DFD01214DF21B604C
:1031600001F078FD02214DF21C6001F073FD342165
:103170004DF21D6001F06EFD02214DF21E6001F066
:1031800069FD67214DF21F6001F064FD02214DF2DF
:10319000206001F05FFD84214DF2216001F05AFDB5
:1031A00002214DF2226001F055FDA4214DF2236071
:1031B00001F050FD02214DF2246001F04BFDB721DA
:1031C0004DF2256001F046FD02214DF2266001F02E
:1031D00041FDCF214DF2276001F03CFD02214DF26F
:1031E000286001F037FDDE214DF2296001F032FD4B
:1031F00002214DF22A6001F02DFDF2214DF22B60EB
:1032000001F028FD02214DF22C6001F023FDFE218A
:103210004DF22D6001F01EFD03214DF22E6001F0F4
:1032200019FD10214DF22F6001F014FD03214DF224
:10323000306001F00FFD33214DF2316001F00AFDE5
:1032400003214DF2326001F005FD6D214DF2336036
:1032500001F000FD5521184601F0FCFCAA2128468A
:1032600001F0F8FC5221304601F0F4FC0821384608
:1032700001F0F0FC0021484601F0ECFCCC2158465E
:1032800001F0E8FC00214BF2011001F0E3FC052104
:10329000504601F0DFFC70214FF4374001F0DAFCBA
:1032A00070214BF2017001F0D5FC01214FF4384040
:1032B00001F0D0FC03214BF6010001F0CBFC03210F
:1032C0004BF6020001F0C6FC03214BF6030001F0AF
:1032D000C1FC02214FF43C4001F0BCFC00214BF644
:1032E000014001F0B7FC00214BF6024001F0B2FCB6
:1032F000D0214FF4494001F0ADFC02214CF6011001
:1033000001F0A8FC50214CF6021001F0A3FC502162
:103310004CF6031001F09EFC50214CF6041001F015
:1033200099FC00214FF4545001F094FC55214FF4C6
:10333000685001F08FFC4FF488502080782003F013
:10334000F3FD4FF424502080FEE3A0F513414FF429
:10335000E06940F2022A4FF4274B25392ED0A0F520
:10336000134140F2077728397ED0A0F513414FF47E
:10337000887B203979D0A0F51341313976D0A0F57A
:10338000A841083973D0A0F5A8514FF4407B053906
:103390006ED0A0F5354105396BD0A0F54541053912
:1033A00068D0A0F58A4131397ED0A0F58A413539FF
:1033B0007BD0A0F5C851633978D0C5E747F6F00156
:1033C000E52001F047FC3146012001F043FC49466D
:1033D000022001F03FFC41F23001032001F03AFCF1
:1033E0000021042001F036FC5146082001F032FC97
:1033F0000021092001F02EFC00210A2001F02AFC06
:1034000000210C2001F026FC00210D2001F022FCFF
:1034100000210F2001F01EFC0021102001F01AFCF9
:103420000721112001F016FC0021122001F012FCEE
:103430000021132001F00EFC0021072001F00AFCFE
:1034400041F29061102001F005FC40F2272111208B
:1034500001F000FC9D21122001F0FCFB4FF4C8514B
:10346000132001F0F7FB06E080E03CE1E1E1B7E288
:1034700053E3FDE3FDE32521292001F0EBFB0D21C2
:103480002B2001F0E7FB0721302001F0E3FB40F2A5
:103490000331312001F0DEFB0321322001F0DAFBA1
:1034A00040F20621352002E0FEE3FEE3FEE301F0F8
:1034B000D1FB0821362001F0CDFB40F20641372038
:1034C00001F0C8FB4FF44171382001F0C3FB072124
:1034D000392001F0BFFB40F202613C2001F0BAFB51
:1034E00008213D2001F0B6FB0021502001F0B2FB85
:1034F000EF21512001F0AEFB0021522001F0AAFB88
:1035000040F23F11532001F0A5FB5946602001F025
:10351000A1FB0121612001F09DFB00216A2001F047
:1035200099FB0021802001F095FB0021812001F012
:1035300091FB0021822001F08DFB0021832001F00E
:1035400089FB0021842001F085FB0021852001F00A
:1035500081FB1021902001F07DFB4FF4C06192208F
:1035600001F078FB40F233110720FDE341F28F01B7
:10357000EC2001F06FFB41F23421EF2001F06AFBF7
:103580003146012001F066FB4946022001F062FB52
:1035900041F23001032001F05DFB0021042001F025
:1035A00059FB5146082001F055FB0021092001F08C
:1035B00051FB00210A2001F04DFB01210C2001F0FC
:1035C00049FB00210D2001F045FB00210F2001F0F7
:1035D00041FB0021102001F03DFB0721112001F0EB
:1035E00039FB0021122001F035FB0021132001F0EE
:1035F00031FB0121072001F02DFB322003F07AFC82
:1036000041F29041102001F025FB40F227211120CA
:1036100001F020FB322003F06DFC8A21122001F022
:1036200019FB322003F066FC4FF4D051132001F057
:1036300011FB0621292001F00DFB0D212B2001F0AB
:1036400009FB322003F056FC0021202001F002FB90
:103650000021212001F0FEFA322003F04BFC002172
:10366000302001F0F7FA40F20461312001F0F2FA63
:1036700040F20531322001F0EDFA0021352001F051
:10368000E9FA40F60941362001F0E4FA4FF40171FD
:10369000372001F0DFFA40F20131382001F0DAFA88
:1036A0003946392001F0D6FA00213C2001F0D2FA47
:1036B00040F60A213D2001F0CDFA322003F01AFC39
:1036C0000021502001F0C6FAEF21512001F0C2FA8A
:1036D0000021522001F0BEFA40F23F11532001F0C8
:1036E000B9FA594651E10021084601F0B3FA3146D2
:1036F000012001F0AFFA4946022001F0ABFA41F295
:103700003001032001F0A6FA0021042001F0A2FA02
:103710005146082001F09EFA0021092001F09AFA92
:1037200000210A2001F096FA01210C2001F092FA02
:1037300000210D2001F08EFA00210F2001F08AFAFD
:10374000322003F0D7FB40F20111072001F082FA8A
:10375000322003F0CFFB4FF48651102001F07AFAAB
:103760000721112001F076FA5B465946122001F03C
:1037700071FA4FF43061132001F06CFA0021292016
:1037800001F068FA44F210012B2001F063FA0021E5
:10379000502001F05FFAEF21512001F05BFA002187
:1037A000522001F057FA40F23F11532001F052FA33
:1037B0004FF41C51602001F04DFA0121612001F00D
:1037C00049FA00216A2001F045FA0021802001F029
:1037D00041FA0021812001F03DFA0021822001F010
:1037E00039FA0021832001F035FA0021842001F00C
:1037F00031FA0021852001F02DFA1021902001F0EE
:1038000029FA0021922001F025FA0121932001F0EC
:1038100021FA1946952001F01DFA0021972001F0A8
:1038200019FA0021982001F015FA40F273110720CF
:1038300086E341F21401E72001F00CFA3146012041
:1038400001F008FA4FF40071022001F003FA41F28E
:103850003801032001F0FEF95146082001F0FAF981
:103860000021092001F0F6F900210A2001F0F2F907
:1038700000210C2001F0EEF900210D2001F0EAF901
:1038800000210F2001F0E6F90021102001F0E2F9FB
:103890000721112001F0DEF90021122001F0DAF9F0
:1038A0000021132001F0D6F9C82003F023FB41F2D8
:1038B0009061102001F0CEF940F22721112001F093
:1038C000C9F9322003F016FB0C21122001F0C2F9D5
:1038D000322003F00FFB4FF40061132001F0BAF91E
:1038E0001121292001F0B6F90B212B2001F0B2F9AA
:1038F000322003F0FFFA0021202001F0ABF940F262
:103900003F131946212001F0A5F90021302001F0D4
:10391000A1F94FF483742146312001F09BF9002175
:10392000322001F097F94FF40171352001F092F93E
:1039300041F20A61362001F08DF93946372001F055
:1039400089F92146382001F085F93946392001F0FE
:1039500081F940F202413C2001F07CF940F60F4130
:103960003D2001F077F90021502001F073F9EF219B
:10397000512001F06FF90021522001F06BF9194636
:10398000532001F067F94FF41C51602001F062F9F7
:103990000121612001F05EF900216A2001F05AF94D
:1039A0000021802001F056F90021812001F052F918
:1039B0000021822001F04EF90021832001F04AF914
:1039C0000021842001F046F90021852001F042F910
:1039D0001021902001F03EF94FF4C0619220FDE3E8
:1039E0003146012001F036F94946022001F032F952
:1039F00041F23001032001F02DF90021042001F0F3
:103A000029F940F20721082001F024F900210920BA
:103A100001F020F900210A2001F01CF900210C20FE
:103A200001F018F900210D2001F014F900210F20F8
:103A300001F010F9142003F05DFA41F2B06110209A
:103A400001F008F90121112001F004F901211720EA
:103A500001F000F94FF49C71122001F0FBF84FF4D3
:103A60000061132001F0F6F80921292001F0F2F895
:103A700009212A2001F0EEF80021A42001F0EAF843
:103A80000021502001F0E6F8EF21512001F0E2F88A
:103A90000021522001F0DEF840F23F11532001F0E6
:103AA000D9F84FF41C51602001F0D4F801216120B5
:103AB00001F0D0F800216A2001F0CCF8002180202C
:103AC00001F0C8F80021812001F0C4F80021822013
:103AD00001F0C0F80021832001F0BCF8002184200F
:103AE00001F0B8F80021852001F0B4F813219020EE
:103AF00001F0B0F80021922001F0ACF803219320EE
:103B000001F0A8F85946952001F0A4F840F273118D
:103B1000072001F09FF8322011E10021072001F079
:103B200099F8322003F0E6F94FF48E71122001F07B
:103B300091F80121A42001F08DF80F21082001F057
:103B400089F808210A2000E07BE301F083F80821CE
:103B50000D2001F07FF83946302001F07BF8072175
:103B6000312001F077F840F20361322001F072F861
:103B70004C464946332001F06DF85146342001F09F
:103B800069F80221352001F065F841F60F71362001
:103B900001F060F83946372001F05CF80021382048
:103BA00001F058F80021392001F054F839463A2044
:103BB00001F050F800213B2001F04CF807213C2097
:103BC00001F048F800213D2001F044F8322003F0D4
:103BD00091F90121072001F03DF80121172001F0A2
:103BE00039F8322003F086F94FF4BD51102001F06E
:103BF00031F840F21721112001F02CF84FF48F71A9
:103C0000122001F027F84FF47061132001F022F820
:103C100000212A2001F01EF80A21292001F01AF8BB
:103C20004FF49F71122001F015F80021502001F08F
:103C300011F8EF21512001F00DF80021522001F080
:103C400009F840F23F11532001F004F84FF41C51E1
:103C5000602000F0FFFF0121612000F0FBFF002148
:103C60006A2000F0F7FF0021802000F0F3FF01E060
:103C700068E066E10021812000F0ECFF0021822055
:103C800000F0E8FF0021832000F0E4FF0021842001
:103C900000F0E0FF0021852000F0DCFF13219020E0
:103CA00000F0D8FF594602E015E2CBE272E3922021
:103CB00000F0D0FF0521932000F0CCFF00219520DB
:103CC00000F0C8FF0021972000F0C4FF00219820D9
:103CD00000F0C0FF3146012000F0BCFF2146022069
:103CE00000F0B8FF41F23801032000F0B3FF0021DB
:103CF000042000F0AFFF00210C2000F0ABFF0021FA
:103D00000F2000F0A7FF0021202000F0A3FF0021DA
:103D1000212000F09FFF2121072000F09BFF1420AD
:103D200003F0E8F86121072000F094FF142003F06D
:103D3000E1F840F27311072000F08CFF142003F02B
:103D4000D9F8A1E30021084600F084FF00210846CD
:103D500000F080FF0021084600F07CFF00210846AB
:103D600000F078FF012100E0E6E0A42000F072FFFF
:103D7000142003F0BFF84FF41C542146602000F0DB
:103D800069FF55465146082000F064FF4FF4057165
:103D9000302000F05FFF43F21571312000F05AFF30
:103DA00040F20461322000F055FF40F616613320E6
:103DB00000F050FF42F21121342000F04BFF4FF48D
:103DC000A851352000F046FF48F20751362000F098
:103DD00041FF41F20741372000F03CFF41F203412F
:103DE000382000F037FF2021392000F033FF1A215E
:103DF000902000F02FFF0021102000F02BFF072162
:103E0000112000F027FF0021122000F023FF0021E5
:103E1000132000F01FFF142003F06CF84FF4E6614C
:103E2000102000F017FF40F23711112000F012FFB0
:103E3000142003F05FF84FF4DC71122000F00AFF49
:103E4000142003F057F84FF47061132000F002FFC4
:103E500080212A2000F0FEFE4821292000F0FAFEF1
:103E6000142003F047F83146012000F0F3FE4946E4
:103E7000022000F0EFFE41F23801032000F0EAFEDC
:103E80002946082000F0E6FE00210A2000F0E2FEAC
:103E900000210C2000F0DEFE00210D2000F0DAFEF3
:103EA00030210E2000F0D6FE0021502000F0D2FE7E
:103EB000EF21512000F0CEFE0021522000F0CAFE7A
:103EC00040F23F11532000F0C5FE2146602000F073
:103ED000C1FE0121612000F0BDFE00216A2000F03A
:103EE000B9FE1121902000F0B5FE4FF4C061922080
:103EF00000F0B0FE40F20241932000F0ABFE022140
:103F0000942000F0A7FE142002F0F4FF0121072006
:103F100000F0A0FE142002F0EDFF6121072000F068
:103F200099FE40F27311072000F094FE002120203A
:103F300000F090FE0021212000F08CFE22210020C4
:103F40007DE10021084600F085FE0021084600F0D2
:103F500081FE142002F0CEFF0021084600F07AFE18
:103F60000021084600F076FE0021084600F072FEAF
:103F70000021084600F06EFE0121A42000F06AFE38
:103F8000142002F0B7FF4FF41C51602000F062FED5
:103F900040F60601082000F05DFE40F2037319466A
:103FA000302000F057FE0121312000F053FE0421A3
:103FB000322000F04FFE4FF48171332000F04AFEB2
:103FC0005C465946342000F045FE40F2031135208E
:103FD00000F040FE1F21362000F03CFE194637203D
:103FE00000F038FE0121382000F034FE0421392091
:103FF00000F030FE1521902000F02CFE4FF482617D
:10400000102000F027FE40F24721112000F022FE90
:104010004FF4DE71122000F01DFE4FF4606113209A
:1040200000F018FE782002F065FF3146012000F014
:1040300011FE4FF40071022000F00CFE41F230013D
:10404000032000F007FE08210A2000F003FE0021F3
:104050000C2000F0FFFD20210E2000F0FBFD0021D0
:104060000F2000F0F7FD0021202000F0F3FD0021DB
:10407000212000F0EFFD3D212A2000F0EBFD14206F
:1040800002F038FF2D21292000F0E4FD002150200E
:1040900000F0E0FD4DF2EF01512000F0DBFD0021CA
:1040A000522000F0D7FD40F23F11532000F0D2FD26
:1040B0000021612000F0CEFD00216A2000F0CAFD41
:1040C0002146922000F0C6FD0521932000F0C2FD9C
:1040D0003146FFF7ACBB0121002000F0BBFD0A20F8
:1040E00002F008FF41F22861102000F0B3FD0E211C
:1040F000122000F0AFFD40F63921132000F0AAFD98
:104100000A2002F0F7FE4021112000F0A3FD50210B
:10411000152000F09FFD0A2002F0ECFE1E21122067
:1041200000F098FD0A2002F0E5FE4FF4B151102096
:1041300000F090FD42F63921132000F08BFD0A209B
:1041400002F0D8FE3146012000F084FD59460220DD
:1041500000F080FD41F23801032000F07BFD514664
:10416000082000F077FD08210A2000F073FD0021EF
:10417000302000F06FFD40F20241312000F06AFD76
:104180004FF48371322000F065FD40F2035133207B
:1041900000F060FD4FF48271342000F05BFD40F2CE
:1041A0000131352000F056FD3946362000F052FD31
:1041B00040F20531372000F04DFD4FF402713820F8
:1041C00000F048FD40F60B71392000F043FD02215C
:1041D000412000F03FFD4FF41C5100E0D5E060208D
:1041E00000F038FD0121612000F034FD4FF404712E
:1041F000902000F02FFD4FF48571922000F02AFDF1
:104200000421932000F026FD3146A02000F022FD7D
:104210000121072000F01EFD2121072000F01AFDDA
:104220002321072000F016FD3321072000F012FDA6
:1042300040F23311072000F00DFD0021A02000F016
:1042400009FD21E13021152000F004FD10219A2004
:1042500000F000FD2021112000F0FCFC43F2284179
:10426000102000F0F7FC0221122000F0F3FC41F2D4
:104270003801132000F0EEFC282002F03BFE122152
:10428000084600F0E7FC282002F034FE43F220410B
:10429000102000F0DFFC43F23801132000F0DAFCBC
:1042A000462002F027FE0021302000F0D3FC40F22F
:1042B0000241312000F0CEFC40F20731322000F004
:1042C000C9FC4FF44171332000F0C4FC04213420B8
:1042D00000F0C0FC40F20141352000F0BBFC394643
:1042E000362000F0B7FC40F20531372000F0B2FC78
:1042F0004FF4C2631946382000F0ACFC194639204F
:1043000000F0A8FC3146012000F0A4FC5946022030
:1043100000F0A0FC41F23001032000F09BFC40F6CD
:104320000801082000F096FC08210A2000F092FC09
:104330004FF41C51602000F08DFC0121612000F041
:1043400089FC4FF49F71902000F084FC314692204C
:1043500000F080FC3146932000F07CFC4FF440518B
:10436000A02000F077FC1021A32000F073FC0121B5
:10437000072000F06FFC2121072000F06BFC2321B7
:10438000072000F067FC3321072000F063FC40F2B7
:1043900033119EE6E22020801D2028800220288004
:1043A00004202880642002F0BFFDE020208001204E
:1043B00028800A2002F09EFDE02020800320288033
:1043C0000C2002F097FD012020800A2002F092FDCF
:1043D000E62020802F202880FF2028802880B02001
:1043E000208020202880002028800320288040F280
:1043F0001F3028800120288040F2DF102880002014
:104400002880B42020800420288040F21F4028808B
:10441000002028802E2028800020288028802880C6
:104420002880B6202080022028804FF40370288046
:104430000020288017202880152028800020288030
:104440002880F02020800320288029202080D02070
:10445000208000202880BE20208005202880FE208B
:104460002880012028800020288028802880B820EB
:1044700020800320288001202880BA20208001206D
:104480002880642000F0B4F80020FCF70FFF0549F5
:104490000120C1F880014046FCF7D2FE1FB0BDE804
:1044A000F08F0000008021420346012000E05843C5
:1044B000491EC9B2FBD27047034808B50088ADF861
:1044C0000000BDF8000008BD0008006C2DE9F041B7
:1044D0003F4E002425463288824202D972888A42A1
:1044E00002D80020BDE8F08100F074F9B08849F2EC
:1044F0004138384B41F6631745F2103145F21052FE
:10450000404508D0A0F5D04CBCF1040C03D0884243
:1045100001D0B84202D14FF02E0C06E0904202D1F9
:104520004FF4385C01E04FF0220CA3F800C0A0F576
:104530001343203B03D10220401EC0B2FCD2FFF740
:10454000BBFFB388BB42CDD00220401EC0B2FCD21C
:10455000FFF7B2FF0746B088404503D0884201D03C
:1045600090420BD10220401EC0B2FCD2FFF7A4FF44
:104570000546F8B24FF6FF7303EA0024B088A0F5B1
:104580001343253B1DD0A0F58A43353B19D0A0F538
:104590008A43313B15D0A0F53543053B11D0A0F53A
:1045A0004543053B0DD0404503D0884201D09042A1
:1045B00009D1F80AC002A10A40EA411040EAD52018
:1045C00090E738468EE73846BDE8F041FCF72EBE4E
:1045D00024020020FE07006C044910B50880052065
:1045E00002F0A2FCBDE81040FFF766BFFE07006CBA
:1045F0000C4A10B5BE211180941C0521218003F0C6
:104600000AFE4FF06632084B03F018FE03F0D6FDA9
:10461000208001202080FF2020800020208020801A
:1046200010BD0000FE07006C66660440F0B5674EE2
:1046300000233146B279898846F6040741F66314AF
:10464000012A01D02AB11DE0B9421BD0A14202D1FA
:1046500018E0A14216D1082814D2DFE800F00406C1
:10466000080A0C0E101206200CE007200AE00420B5
:1046700008E0052006E0012004E0002002E003201D
:1046800000E00220A1F5134C45F2103245F210551E
:10469000BCF1410C07D0B94205D0914203D0A942E8
:1046A00001D0A14275D1082812D2DFE800F0110430
:1046B00006080A0C0E1080230AE0402308E0C023FD
:1046C00006E0202304E0602302E0A02300E0E023D2
:1046D000A94202D14FF4585000E03620914205D053
:1046E000A94203D0A14201D043F00803B94201D14D
:1046F00043F00203194600F0ADFAB288A2420AD094
:1047000098063088718802D5884202D303E0884237
:1047100001D9318070802E48811CAA4272890280A2
:1047200021D100230B80531C038000230B80931C9A
:10473000038033885B1E1C0A0C80D21C0280DAB214
:104740000A80B289028000230B80531C038000235F
:104750000B80931C038073885B1E1C0A0C80D21C88
:104760000280D8B212E000220A800A803288521EEB
:10477000130A0B80D2B20A80B2890280002008801E
:1047800008807088401E020A0A80C0B20880F0BD0E
:10479000FFE7082812D2DFE800F0040608110A0C2F
:1047A0000E1030230AE0102308E0202306E038230F
:1047B00004E0282302E0182300E00823BDE8F040CD
:1047C000032043F4805100F045BA00002402002089
:1047D000FE07006C2DE9F04F4E4F0B463A46BD8860
:1047E0000C0ADFF834B191895289A5F513464FEAD6
:1047F000102C0BF1020A413E1DD0A5F5A646103E35
:1048000019D03E46BE4696F806903688A5F5D047A4
:10481000A6EB0008A8F10108043F17D0A5F5C8577A
:10482000633F28D0A5F5AA477646103F51D0B9F18D
:10483000010F63D064E0ABF800205246AAF800C034
:10484000C0B2AAF80000ABF800100FE0B9F1010FF8
:1048500001D11FFA88F0ABF80020050A5246AAF8E9
:104860000050C0B2AAF80000ABF800101480D8B213
:104870001080BDE8F08FB9F1000F1BD0ABF800201D
:104880005246AAF800C0C0B2AAF80000761E300A4C
:10489000AAF80000F0B21080ABF8001011461480A6
:1048A000D8B21080BEF80200401E020A0A80C0B2D0
:1048B0000880DEE71FFA88F0ABF800200026524699
:1048C000AAF80060AAF80060060AAAF80060C0B260
:1048D000E1E7ABF80020AAF800C0521CABF80020BA
:1048E000C0B2AAF80000ABF80010AAF80040491CBA
:1048F000ABF80010D8B2AAF80000BAE71FFA88F0A7
:104900000146104600F0A6F9B089BDE8F04F1946FF
:1049100000F0A0B924020020FE07006C2DE9FC4F36
:10492000044691464844401E86B2C818401E83B2D1
:10493000009004EB0900401EC0F3072EDFF850C1C1
:1049400000980D46C0F3072B6046BCF804204FEAE0
:10495000112881894089A2F513474FEA142A413F63
:1049600010D0A2F5A647103F0CD0A2F5D047043FC7
:1049700008D09CF8067041F6631C0197012F13D1F3
:10498000624511D1434F3880B81CA0F800A0E2B2B4
:104990000280A0F800E0F2B202803980A0F8008026
:1049A000E9B2018059461CE0394F62453F881DD16C
:1049B000A7EB0902121B374C009B92B29BB22080DE
:1049C000160AA01C0680D6B206804A44521E160A59
:1049D0000680D2B202802180A0F80080E9B2018076
:1049E000190A0180D9B20180BDE8FC8FA2F5A04C64
:1049F000BCF5A26C1FD0019801283FD0B0462146DB
:104A00002E4650204FF0510A4FF05209532700F024
:104A100021F94146504600F01DF93146484600F064
:104A200019F91946384600F015F929462046BDE81F
:104A3000FC4FFFF7CFBE174A1080971CA7F800A0C5
:104A400000F1010CA2F800C0E4B23C80841C148088
:104A5000A7F800E0C01C1080F0B238801180A7F8E1
:104A60000080481C1080E8B23880881C1080A7F8AD
:104A700000B0C91C1180D8B23880B5E7B81B401E01
:104A800086B2381B9846401E294683B2B9E700001B
:104A900024020020FE07006C2DE9F84F82461F46D5
:104AA0000C468B46580700D0012000EBD700790850
:104AB0004843203AC0B202F0FF090026009041E0CE
:104AC0000C2F10D0102F12D0182F3ED1204909EBF7
:104AD000C90001EB80004FF00008855D28060AD56B
:104AE0001C4802880BE009EB49001B49F1E71B4910
:104AF00001EB0910EFE70A9828B9164842882146C9
:104B00005046FCF7E3FC6806050E1548641CA4B289
:104B10004088A04219D9A4EB0B00B84209D10AF190
:104B200001001FFA80FA0E485C46018851450CD9F5
:104B300006E008F1010000F0FF08B8F1080FCDD33E
:104B4000761CF6B200988642BAD3BDE8F88F000012
:104B5000B69400081A000020528A0008C68E000889
:104B6000240200202DE9F84F044600F0FF08101938
:104B70000D46DDE90A761FFA80FA58191FFA80F906
:104B80004FF0000B11E0544502D3E819444685B2BA
:104B90004D450FD23B4629462046CDF800B0FFF7E1
:104BA0007BFF04EB570084B2761C3278A2F1200020
:104BB0005E28E8D9BDE8F88F2DE9FF4F81B0804627
:104BC000DDF83CA00E984FF000091F4693464C4676
:104BD0000AF0010546082BE0381B401EC1B20A202E
:104BE000FFF762FCBBFBF0F00A21B0FBF1F201FB26
:104BF0001200B9F1000F05D1791E8C4202DA48B1DA
:104C00004FF001093030C2B206FB048080B200953B
:104C10000E9B08E05FEA0A6006FB04800E9B80B2F0
:104C200000950AD530220299FFF736FF641CE4B2E2
:104C3000BC42D1D305B0BDE8F08F2022F3E70000DD
:104C400002480349008908807047000024020020C0
:104C5000FE07006C024A1080901C01807047000023
:104C6000FE07006C38B50121482000F01FFF20240A
:104C7000ADF8004010208DF8030003200B4D8DF897
:104C8000020069462846FCF78DF920212846FCF7EA
:104C90000CFAADF80040064C69462046FCF782F954
:104CA00020212046FCF701FA38BD0000000C01402D
:104CB00000180140FEE7704730B50F23C278017835
:104CC0000125F2B1144A126801F1E02102F4E06218
:104CD000C2F5E062120AC2F10404D3404278A24055
:104CE00084781C401443220181F80024007800F0ED
:104CF0001F018D404009800000F1E020C0F8005104
:104D000030BD01F01F0085404809800000F1E0201F
:104D1000C0F8805130BD00000CED00E002490843AE
:104D200002490860704700000000FA050CED00E041
:104D30000021801C05280BD2DFE800F003050A07DC
:104D40000900B02104E0982102E0182100E03021A0
:104D5000552001F0B3B870B5802622255E24801C52
:104D6000052813D2DFE800F00307120B0F004026DE
:104D700011252F240AE066261B254B2406E09926E0
:104D80002825712402E0C02633258D2431464F208A
:104D900001F094F83146502001F090F800215120A4
:104DA00001F08CF82946522001F088F82146532062
:104DB00001F084F83146542001F080F8BDE87040DD
:104DC0009E21582001F07AB84021801C05280BD282
:104DD000DFE800F003050A070900302104E038216C
:104DE00002E0502100E06021562001F067B8000089
:104DF000F8B50024012140F23D1000F057FE4FF4B9
:104E00008075ADF8005048268DF803600320354FBB
:104E10008DF8020069463846FCF7C4F82946384642
:104E2000FCF743F91820ADF800002F4F10258DF83E
:104E3000035069463846FCF7B5F818213846FCF7A8
:104E400034F9FF20ADF800008DF80360694627486B
:104E5000FCF7A8F84020ADF80000254E8DF803506F
:104E600069463046FCF79EF840213046FCF71DF9B4
:104E70004FF44046ADF800608DF803501D4D694673
:104E80002846FCF78FF831462846FCF70EF9012139
:104E90001948FCF7D5F800F0DBFE8021122001F064
:104EA0000DF808B10120F8BD322002F023F80B20E4
:104EB00000F060FF732804D10A2000F05BFF762821
:104EC00001D00220F8BD0D4D05EB4400417815F8E6
:104ED000140000F0F3FF641CA4B2A82CF4D300204B
:104EE000F8BD000000080140000C01400010014026
:104EF00000140140002001400002300012A200080E
:104F000010B505283AD2DFE800F0030D17212B0079
:104F1000E721132000F0D2FF0021012000F0CEFF96
:104F2000002126E0E521132000F0C8FF5A210120CE
:104F300000F0C4FF5C211CE0E521132000F0BEFF5F
:104F40005821012000F0BAFF602112E0E521132072
:104F500000F0B4FF8421012000F0B0FF4C2108E0F4
:104F6000E521132000F0AAFF9621012000F0A6FF02
:104F70004021BDE81040022000F0A0BF10BD10B5D8
:104F800007283BD2DFE800F0040608121C262C009C
:104F900004210CE0242100E014213A2000F08EFFCF
:104FA0008021672000F08AFF802122E014213A202E
:104FB00000F084FF8021672000F080FFC02118E00E
:104FC00014213A2000F07AFF4021672000F076FF9C
:104FD00040210EE014213A2000F070FFC021E0E7EC
:104FE00014213A2000F06AFF4021672000F066FF9C
:104FF000A021BDE81040682000F060BF10BD2DE981
:10500000F041054600EB420086B201EB430084B25A
:105010000F46B4F5447F02D9A4F54474A4B203202A
:1050200000F0A8FE06F00302294600F0F00062F34B
:105030009F010143032000F041FFC5F387011920C0
:1050400000F03CFFC6F387011A2000F037FF322042
:1050500000F090FEC7F3C701172000F02FFFC4F344
:10506000C701BDE8F041182000F028BF2DE9F04746
:10507000DFF8E09099F80000002868D00420FFF7DE
:10508000D5FA35494FF4A0728888A0F5C853633B20
:1050900008D0A0F5AA43103B14D0A0F5A643103BBE
:1050A00010D01FE008884988F038A1F5A07101EB05
:1050B000D17100EBD0701346C1F34F01C0F34F0024
:1050C000F0220DE008884988A0F5A070F03901EBC6
:1050D000D17100EBD070C1F34F01C0F34F00F0234A
:1050E000FFF71CFCFFF7ACFD1C480027C0F8B871A7
:1050F0001B4C10212160251F296021600122C0F86E
:10510000B8212960174EDFF8608038464FF6FF73EC
:105110004FF4963A2160B268296003EA02222160C6
:10512000D6F808C029600CF0FF0C4CEA020CA8F875
:1051300000C0401C5045EDD30C4989F80070087838
:10514000401C0870BDE8F0470020FFF76FBABDE8CB
:10515000F0870000220000202402002000002442EA
:10516000140C0140001001400008006C25000020D4
:1051700005480078012803D0022803D1FFF776BF45
:1051800000F02ABA704700000000002010B5001D92
:10519000092815D2DFE800F01F1D12100E0C0A07B7
:1051A0000500482100E03821062409E02821FBE71A
:1051B0001821F9E70821F7E7082100E018210E245B
:1051C0009B2000F07BFE2146BDE81040AB2000F0A4
:1051D00075BE2821F3E73821F1E710B5011D082934
:1051E0000BD804014034E1B2A72000F067FEE1B221
:1051F000BDE81040A82000F061BE10BD011D0829C7
:1052000006D8202101EB8000C1B29C2000F056BEE0
:1052100070470000F8B50024012140F23D1000F075
:1052200045FC4FF48075ADF8005048268DF80360BA
:105230000320424F8DF8020069463846FBF7B2FE64
:1052400029463846FBF731FF1820ADF800003C4FE7
:1052500010258DF8035069463846FBF7A3FE182148
:105260003846FBF722FFFF20ADF800008DF8036001
:1052700069463448FBF796FE4020ADF80000324EF8
:105280008DF8035069463046FBF78CFE40213046CE
:10529000FBF70BFF4FF44046ADF800608DF803506C
:1052A0002A4D69462846FBF77DFE31462846FBF726
:1052B000FCFE01212648FBF7C3FE00F0C9FC80215B
:1052C000122000F0FBFD08B10120F8BD322001F0F2
:1052D00011FE1C2000F04EFD4FF6FF7505EA00267A
:1052E0001D2000F047FD40EA0601A1F5FE40A2386E
:1052F00003D018A0FAF7BAFFE6E70A2000F03AFD5B
:1053000005EA00250B2000F035FD40EA0501A1F576
:10531000EE40213804D012A0FAF7A8FF0220F8BD11
:10532000124D05EB4400417815F8140000F0C6FD5D
:10533000641CA4B2412CF4D30020F8BD0008014045
:10534000000C014000100140001401400020014009
:10535000000230004D49443A25640D0A0000000067
:105360004849443A25640D0A0000000062A3000881
:1053700010B5062847D2DFE800F003061D27313CB0
:10538000FF21132009E0FD21132000F097FD5A2191
:10539000012000F093FD5C2129E000F08FFD6521E4
:1053A0000E2000F08BFD00212D2000F087FD002154
:1053B0002E2024E0FD21132000F080FD5821012043
:1053C00000F07CFD602112E0FD21132000F076FD4D
:1053D0008421012000F072FD4C2108E0FD21132002
:1053E00000F06CFD9621012000F068FD40210220B4
:1053F000D3E7FF21132000F061FDE5210E20BDE879
:10540000104000F05BBD10BD10B5072840D2DFE8AA
:1054100000F0040609131D273100062103E0462190
:10542000A62031E02621A62000F048FD8021602042
:1054300000F044FD802126E01E21A62000F03EFD64
:105440008021602000F03AFDC0211CE01E21A62032
:1054500000F034FD6021084600F030FD602112E0CC
:105460001E21A62000F02AFDA021602000F026FDCC
:10547000402108E01E21A62000F020FD40216020F0
:1054800000F01CFDA0216120BDE8104000F016BD19
:1054900010BD2DE9F0470C4605464AB3C5F520700E
:1054A00000EBD070C0F34F07C4F5F07000EBD07084
:1054B000C0F34F060621122000F000FD2321172023
:1054C00000F0FCFCA021182000F0F8FC07211920B6
:1054D00000F0F4FCF0211A2000F0F0FC0021322052
:1054E00000F0ECFCA021292000F0E8FCF02128E0ED
:1054F000C5F5A07000EBD070C0F34F07C4F1F00009
:1055000000EBD070C0F34F064621122000F0D6FC0D
:105510003F21172000F0D2FC5021182000F0CEFCD3
:105520000321192000F0CAFC78211A2000F0C6FCE3
:105530000021322000F0C2FC5021292000F0BEFCE6
:1055400078212C2000F0BAFC172000F013FC00EBAF
:105550009700C1B2172000F0B1FCC5F387018A465D
:10556000182000F0ABFC192000F004FC00EB560002
:10557000C1B2192000F0A2FCC4F3470189461A20E9
:1055800000F09CFC322000F0F5FB8046F007400E56
:1055900007F0030104F0010640EA011040EA860129
:1055A00005F00304214341EA0801322000F086FCA3
:1055B0005146292000F082FC49462C2000F07EFC58
:1055C0002A2000F0D7FB44EA080444EA8601BDE83B
:1055D000F0472A2000F072BC2DE9F05FDFF8D8B068
:1055E0009BF80000002865D00420FFF71FF8334C1B
:1055F0004FF4A075F02320886188A0F5A070F039E1
:1056000001EBD17100EBD070C1F34F01C0F34F003B
:105610002A46FFF783F9A088A0F5C851633910D155
:1056200020886188A0F5A070F03901EBD17100EB02
:10563000D070C1F34F01C0F34F002B46F022FFF7AB
:105640006DF9FFF7FDFA1E484FF0000AC0F8B8A147
:105650001C4E10213160371F396031600122C0F8C3
:10566000B8213960A946184DDFF8608054464FF6DE
:10567000FF7300203160AA68396003EA02223160BA
:10568000D5F808C039600CF0FF0C4CEA020CA8F801
:1056900000C0401C4845EDD3641CF02CE9D30C48F5
:1056A0008BF800A00178491C0170BDE8F05F002074
:1056B000FEF7BCBFBDE8F09F2200002024020020BE
:1056C00000002442140C0140001001400008006C4E
:1056D000250000202DE9FF5F00204049039083460C
:1056E0008246814602904FF47840088010243CA006
:1056F000CDE900402346C8220A211E20FFF732FAD6
:1057000000253D4E3D4F4FF6FF78FFF783FDD8B1A2
:10571000FFF76EFB002838D039A0CDE900401023F8
:10572000C822E6211E20FFF71DFAC82001F0E2FB87
:10573000F623EF22E6211E20CDF80080FBF756FF6E
:10574000C82001F0D7FBE0E70120307032A0CDE99E
:1057500000401023C8220A211E20FFF703FA00226E
:10576000F0214FF4A070FFF794FE0398FFF700FEBE
:105770005846FFF732FD5046FFF708FD4846FFF751
:105780003DFD0298FFF740FE24E00220307028A083
:10579000CDE900401023C822E6211E20FFF7E2F9E0
:1057A00040F2DC5001F0A6FB0398FFF7A9FB584636
:1057B000FFF7D1FA5046FFF7BBFA4846FFF704FB64
:1057C0000298FFF7DCFB4FF4A073F022B0210C200D
:1057D000FFF715FCC7F8BC51BDE8FF9F1A00002079
:1057E0004F56373732355F4F563736373020496E90
:1057F00069742E2E2E0000000000002000002442BC
:105800004F56373732355F4F56373637302045726F
:10581000726F7221210000004F5637373235204910
:105820006E6974204F4B2020202020202000000093
:105830004F563736373020496E6974204F4B202041
:10584000202020202000000010B5124CE169606A81
:10585000421A626100F0DAF8E06204F12C0000F014
:1058600075F86069002803DDE16A606B084404E0B4
:1058700004DAE16A606BA0EB01006063054800F1A7
:10588000340001F094FAA08EBDE8104081B20248C5
:1058900000F0E2BFE00100200004004010B5124C0F
:1058A000216AA06A421AA26100F0B0F8206304F1F4
:1058B000300000F04BF8A069002804DD216BA06BDC
:1058C000A0EB010003E003DA216BA06B0844A063A6
:1058D000054800F1380001F06AFA208FBDE8104059
:1058E00081B2024800F0BABFE0010020000400408D
:1058F00070B5154D4FF4FA742146284600F0ACFF00
:105900002146284600F0AAFF204601F0F3FA4FF4A2
:10591000AF663146284600F09FFF3146284600F02A
:105920009DFF204601F0E6FA40F6980631462846EB
:1059300000F092FF3146284600F090FF2046BDE877
:10594000704001F0D7BA000000040040016800294F
:1059500001DA49420160704770470000F0B50D461A
:10596000064689B00121022000F094F80121084682
:1059700000F09CF80121042000F098F80024214F49
:10598000ADF81240ADF81460ADF81050ADF8164007
:1059900004A9384600F08EFFC020ADF81C00182086
:1059A0008DF81F0003208DF81E0007A91648FBF78D
:1059B000F9FA6026ADF800600125ADF80840ADF8B1
:1059C00002506946384600F0AFFEADF80060ADF811
:1059D0000840ADF802506946384600F0F1FE082153
:1059E000384600F0E7FE0821384600F029FF012183
:1059F000384600F0C7FD0121384600F0D3FD09B05C
:105A0000F0BD000000040040000801402DE9F04115
:105A1000081A02F0C5FE174D01468046A86802F03C
:105A200021FEA86006464046E96802F09DFF124C40
:105A30000746216CA06802F0CBFE394602F0C8FE92
:105A40000746E16B606802F0C3FE314602F0C0FE1B
:105A500006464146206802F0BBFE314602F002FED7
:105A6000394602F0FFFDC5F80C80BDE8F04102F0B8
:105A70005BBE000028000020E0010020044A00294D
:105A8000516901D0014300E081435161704700003A
:105A900000100240044A0029D16901D0014300E00E
:105AA0008143D1617047000000100240044A002980
:105AB000916901D0014300E081439161704700008A
:105AC0000010024030B5204A5168204B11F00C0103
:105AD00003D0042901D0082901D0036012E05168E5
